:020000040800F2
:10000000604400204501000845130008471300081C
:100010004B1300084F1300085313000800000000A2
:10002000000000000000000000000000571300085E
:1000300059130008000000005B1300085D1300085E
:100040005F0100085F0100085F0100085F01000810
:100050005F0100085F0100085F0100085F01000800
:100060005F0100085F0100085F0100085F010008F0
:100070005F0100085F0100085F0100085F010008E0
:100080005F0100085F0100085F0100085F010008D0
:100090005F0100085F0100085F0100085F010008C0
:1000A0005F0100085F0100085F0100085F010008B0
:1000B0005F0100085F0100085F0100085F010008A0
:1000C0005F0100085F0100085F0100085F01000890
:1000D0005F010008691300085F0100085F01000864
:1000E0005F0100085F0100085F0100085F01000870
:1000F0005F0100085F0100085F0100085F01000860
:100100005F0100085F0100085F0100085F0100084F
:100110005F0100085F0100085F0100085F0100083F
:100120005F0100085F0100085F0100085F0100082F
:10013000DFF80CD004F0E8F900480047311300085C
:10014000604400200648804706480047FEE7FEE777
:10015000FEE7FEE7FEE7FEE7FEE7FEE7FEE7FEE777
:1001600047020008310100080CB500200190009002
:100170006C48006840F480306A49086000BF6948F4
:10018000006800F4003000900198401C0190009835
:1001900018B90198B0F5A06FF1D16248006800F479
:1001A000003010B10120009001E000200090009884
:1001B000012843D15C48006840F010005A490860AB
:1001C0000846006820F0030008600846006840F018
:1001D0000200086053484068524948600846406839
:1001E00048600846406840F48060486008464068BF
:1001F00020F47C1048600846406840F4E8104860ED
:100200000846006840F08070086000BF45480068FC
:1002100000F000700028F9D04248406820F0030048
:10022000404948600846406840F00200486000BF0E
:100230003C48406800F00C000828F9D10CBD10B50E
:10024000FFF792FF10BD10B53648006840F001007E
:1002500034490860084640683449084031494860DC
:1002600008460068324908402E4908600846006880
:1002700020F4802008600846406820F4FE004860B2
:100280004FF41F008860FFF7DAFF4FF00060294944
:10029000086010BD10B5002100200022214B5B68D2
:1002A00003F00C0121B1042906D0082928D107E068
:1002B000214B224C236027E01F4B204C236023E07E
:1002C000184B5B6803F47010164B5B6803F48032C4
:1002D000022303EB904022B9194B4343174C236090
:1002E0000DE0104B5B6803F4003323B1144B434320
:1002F000124C236003E0104B4343104C236003E097
:100300000D4B0E4C236000BF00BF064B5B68C3F370
:1003100003130C4CE15C094B1B68CB40074C23607A
:1003200010BD000000100240002002400000FFF855
:10033000FFFFF6FE08ED00E000127A00000000204A
:1003400000093D000400002031490143314A116099
:10035000704770B5002100230F22C47804B32D4CE0
:10036000246804F4E064C4F5E064210AC1F10403E4
:10037000CA40447804FA03F1847814402143090107
:10038000254C0678A155047804F01F050124AC40E3
:1003900005786D11AD0005F1E025C5F8004109E0D3
:1003A000047804F01F050124AC401C4D067876113A
:1003B00045F8264070BD1A4A0A400243154B1B1FE0
:1003C0001A60704739B1134A121D12680243114B6B
:1003D0001B1D1A6006E00F4A121D126882430D4B66
:1003E0001B1D1A607047042808D14FF0E0210969ED
:1003F00041F004014FF0E022116107E04FF0E021ED
:10040000096921F004014FF0E022116170470000FA
:100410000000FA050CED00E000E400E080E100E0FF
:1004200080FFFF1F10B50446CC48844208D101214B
:10043000042000F02FFD0021042000F02BFD46E0F9
:10044000C748844208D10121082000F023FD002183
:10045000082000F01FFD3AE0C248844208D1012183
:10046000102000F017FD0021102000F013FD2EE0F9
:10047000BD48844208D10121202000F00BFD00215D
:10048000202000F007FD22E0B848844208D1012175
:10049000402000F0FFFC0021402000F0FBFC16E0B3
:1004A000B348844208D10121802000F0F3FC0021F0
:1004B000802000F0EFFC0AE0AE48844207D1012121
:1004C000801500F0E7FC0021A01500F0E3FC10BD52
:1004D00010B50121084600F0DDFC0021012000F0EC
:1004E000D9FC10BD2DE9F041024600250026002070
:1004F00000230024002791F803C00CF00F0591F8A9
:1005000003C00CF0100CBCF1000F03D091F802C036
:100510004CEA050591F800C0BCF1000F31D0146819
:1005200000202BE04FF0010C0CFA00F3B1F800C0F2
:100530000CEA03069E4220D183004FF00F0C0CFA08
:1005400003F7BC4305FA03FC4CEA040491F803C02A
:10055000BCF1280F06D14FF0010C0CFA00FCC2F8D8
:1005600014C00AE091F803C0BCF1480F05D14FF068
:10057000010C0CFA00FCC2F810C0401C0828D1D3B2
:100580001460B1F800C0BCF1FF0F34DD54680020E6
:100590002EE000F1080C4FF0010808FA0CF3B1F856
:1005A00000C00CEA03069E4221D183004FF00F0CDD
:1005B0000CFA03F7BC4305FA03FC4CEA040491F877
:1005C00003C0BCF1280F05D100F1080C08FA0CF8A3
:1005D000C2F8148091F803C0BCF1480F07D100F1B4
:1005E000080C4FF0010808FA0CF8C2F81080401C03
:1005F0000828CED35460BDE8F0814FF6FF7101802A
:10060000022181700421C170704702460020936866
:100610000B400BB1012000E00020704701468868C4
:1006200080B2704702460020D3680B400BB1012016
:1006300000E0002070470146C86880B27047016141
:100640007047416170470AB1016100E04161704744
:10065000C16070474FF480320A43826181618261D8
:1006600082698269704702460020434B18684FF642
:100670008073184040EA021008433F4B18607047EF
:100680003E49C8617047F0B50A46002300240021A6
:10069000002500F00046B6F1004F02D1364EF16958
:1006A00001E0354E7168C0F3034583B200F4401693
:1006B000B6F5401F08D121F070612F4E766826F004
:1006C00070662D4F7E6012E000F48016B6F5801F34
:1006D00006D1032606FA05F4A14341F0706106E055
:1006E000460D360103FA06F6B14341F0706122B1BE
:1006F000460D360103FA06F6314300F00046B6F126
:10070000004F02D11C4EF16101E01B4E7160F0BD43
:1007100030B500228B071C0F0F2303FA04F2164B8F
:1007200008338C1053F824309343134C08348D1045
:1007300044F8253023468C1053F824308C07240FBE
:1007400000FA04F423430C4C08348D1044F825308F
:1007500030BD0A49DC3108607047000000080140E4
:10076000000C01400010014000140140001801403D
:10077000001C014000200140000001400000204218
:1007800010B50446F748844209D10121480500F01C
:100790008EFB00214FF4001000F089FB08E00121DE
:1007A000880500F084FB00214FF4800000F07FFBFF
:1007B00010BD2DE9F04385B004460D460026B14634
:1007C0000427DFF8A483A6884FF6C0700640684669
:1007D00000F0D9FADDF80880E448B8FBF0F01FFA21
:1007E00080F946EA0906A68020884FF6FE71084087
:1007F00020800026DE49286888420CD828684000FE
:10080000B8FBF0F087B2042F00DA04273E4309F169
:100810000100208427E0E8884BF6FF71884206D16A
:10082000286800EB4000B8FBF0F087B209E02868C8
:1008300000EBC00101EB0010B8FBF0F087B247F409
:100840008047C7F30B0008B947F0010747F40040A1
:1008500006434FF4967009FB00F04FF47A7190FB59
:10086000F1F0401C2084A683208840F00100208005
:1008700026884FF6F5300640A88869890843064364
:100880002680A88929890843208105B0BDE8F08326
:1008900041F288310160002181804BF6FF71C180F7
:1008A0000021018141814FF480418181704721B154
:1008B000028842F00102028004E002884FF6FE73D3
:1008C0001A400280704721B1828842F4006282801F
:1008D00004E082884FF2FF731A408280704721B192
:1008E000828842F48052828004E082884EF6FF7350
:1008F0001A408280704721B1028842F480720280DF
:1009000004E002884FF6FF631A400280704721B16D
:10091000028842F40072028004E002884FF6FF531E
:100920001A400280704721B1028842F4806202803E
:1009300004E002884FF6FF331A40028070470A46EF
:10094000002181894FF60173194002F0FE0319431B
:100950008181704721B1828942F00102828104E0E5
:1009600082894FF6FE731A408281704721B1028856
:1009700042F04002028004E002884FF6BF731A4042
:10098000028070471AB183880B43838002E083881A
:100990008B4383807047018270470146088AC0B24A
:1009A000704712B141F0010102E04FF6FE731940A9
:1009B0000182704708B5024600200090009200981E
:1009C000084400900098008808BD21B1028842F4D4
:1009D0000042028003E00288C2F30E0202807047E8
:1009E000B1F5006F04D1028842F40062028004E095
:1009F00002884FF2FF731A4002807047B1F5005F22
:100A000004D1028842F40052028004E002884DF6CC
:100A1000FF731A400280704721B1028842F480526D
:100A2000028004E002884EF6FF731A40028070478D
:100A3000B1F5006F04D1028842F40062028004E044
:100A400002884FF2FF731A400280704721B102887A
:100A500042F02002028004E002884FF6DF731A4061
:100A6000028070470146088B0012704721B102884E
:100A700042F01002028004E002884FF6EF731A4041
:100A80000280704721B9028842F08002028004E0AF
:100A900002884FF67F731A4002807047B1F5804F8D
:100AA00005D0828B4BF6FF731A40828303E0828B62
:100AB00042F480428283704770B5024600240025CC
:100AC00000230020958A138B1B0445EA030626F0B9
:100AD0007F4404EA01068E4201D1012000E000209B
:100AE00070BD10B501460020002300228B8A0A8BBE
:100AF000120443EA020424F07F4010BD0CB5024604
:100B0000002000230193009300920B0F019321F02A
:100B10007F41019B1BB1009B1433009303E0090C40
:100B2000009B18330093009B1B680B400BB1012006
:100B300000E000200CBD002221F07F42D3438382DD
:100B4000704730B5024600200023948801F0E0652C
:100B500004EA154321F07F41948A0C4054B14BB113
:100B6000012008E00054004000127A0040420F00CB
:100B7000A0860100002030BD002221F07F42D34337
:100B800083827047DF48006840F00100DD4908605B
:100B900008464068DC490840DA4948600846006871
:100BA000DA490840D74908600846006820F48020E8
:100BB00008600846406820F4FE0048604FF41F00BB
:100BC00088607047CF49096821F48031CD4A1160AF
:100BD0001146096821F480211160B0F5803F03D0EF
:100BE000B0F5802F0ED106E0C649096841F4803186
:100BF000C44A116007E0C349096841F4A021C14A11
:100C0000116000E000BF00BF704710B50146002230
:100C1000002300204A11012A02D1BA4C236806E0C1
:100C2000022A02D1B74C236A01E0B64C636A01F094
:100C30001F02012494401C400CB1012000E0002060
:100C400010BD38B5002000900024002500BF3120E1
:100C5000FFF7DBFF05460098401C00900098B0F5B8
:100C6000A06F01D0002DF2D03120FFF7CEFF08B1E8
:100C7000012400E00024204638BD01460020A14A9E
:100C8000106820F0F80040EAC10010607047A049E9
:100C900008607047024600209A4B586820F47C1088
:100CA00042EA01031843974B586070479849086619
:100CB000704701460020934A506820F00300084323
:100CC000506070478F48406800F00C007047014644
:100CD00000208C4A506820F0F000084350607047B4
:100CE00001460020874A506820F4E06008435060C5
:100CF000704701460020834A506820F4605040EA63
:100D0000C1005060704729B17E4A527A02437D4B40
:100D10005A7204E07B4A527A82437A4B5A72704785
:100D20007B49D8310860704701460020754A5068F9
:100D300020F440400843506070470021714A20323F
:100D40001170704A82F82010012802D004280AD1BC
:100D500004E001216B4A2032117005E00521694A47
:100D60002032117000E000BF00BF70476949086081
:100D700070476449096A0143624A116270476549D4
:100D800044390860704730B5002100220024002358
:100D90005C4D6D6805F00C0121B1042905D00829CE
:100DA00023D105E05C4D056022E05B4D05601FE04E
:100DB000544D6D6805F47012524D6D6805F4803421
:100DC000022505EB92421CB9544D554305600BE0DA
:100DD0004C4D6D6805F400351DB1504D554305600F
:100DE00002E04D4D5543056002E04B4D056000BFEC
:100DF00000BF444D6D6805F0F0010909484D6B5C7A
:100E00000568DD4045603F4D6D6805F4E061090A05
:100E1000434D6B5C4568DD4085603A4D6D6805F477
:100E20006051C90A3E4D6B5C4568DD40C560354D7B
:100E30006D6805F44041890B3A4D6B5CC568B5FBA4
:100E4000F3F5056130BD29B12E4A526902432D4B9D
:100E50005A6104E02B4A526982432A4B5A61704717
:100E600029B1284A92690243264B9A6104E0254A37
:100E700092698243234B9A61704729B1214AD26912
:100E80000243204BDA6104E01E4AD26982431D4BC3
:100E9000DA61704729B11B4AD2680243194BDA6004
:100EA00004E0184AD2688243164BDA60704729B1D1
:100EB000144A12690243134B1A6104E0114A126981
:100EC0008243104B1A6170471249403908607047DD
:100ED0000F49C86470470B49C87170470948406A98
:100EE00040F0807007494862704701460020054A7B
:100EF00092680A400AB1012000E0002070470149D1
:100F000088727047001002400000FFF8FFFFF6FEF5
:100F1000000042428004424200127A0000093D0073
:100F2000140000202400002010B50446FB48844231
:100F300009D101218803FFF7ADFF00214FF4804064
:100F4000FFF7A8FF32E0F648844209D101214804A6
:100F5000FFF7ADFF00214FF40030FFF7A8FF25E0B9
:100F6000F048844209D101218804FFF7A0FF002145
:100F70004FF48020FFF79BFF18E0EB48844209D133
:100F80000121C804FFF793FF00214FF40020FFF771
:100F90008EFF0BE0E548844208D101210805FFF7E8
:100FA00086FF00214FF48010FFF781FF10BD2DE96F
:100FB000F04786B005460E460024A24600BFA14673
:100FC0000027B08900B100BF2F462C8A4CF6FF7075
:100FD0000440F08804432C82AC894EF6F3100440A0
:100FE000B08831890843718908430443AC81AC8AD5
:100FF0004FF6FF400440B0890443AC8201A8FFF7DC
:10100000C2FEC648874202D1DDF810A001E0DDF83B
:101010000CA0A88900F4004040B10AEBCA0000EB24
:101020000A1031684900B0FBF1F807E00AEBCA008A
:1010300000EB0A1031688900B0FBF1F86420B8FBBE
:10104000F0F004012009642101FB1089A88900F453
:10105000004040B1322000EBC900B0FBF1F000F0DD
:101060000700044308E0322000EB09106421B0FBC4
:10107000F1F000F00F0004432C8106B0BDE8F087CA
:101080004FF41651016000218180C18001810C2143
:10109000418100218181704710B502460020108AED
:1010A0004FF2FF0318400B884C8823438C8823435E
:1010B000CC8823431843108210BD00210180418059
:1010C0008180C180704721B1828942F400528281BF
:1010D00004E082894DF6FF731A4082817047F0B5B3
:1010E0000346002400260025002040F66A17B94276
:1010F00000D100BF1846C1F3421401F01F060127BA
:1011000007FA06F5012C01D10C3004E0022C01D1C4
:10111000103000E014301AB107682F43076002E076
:101120000768AF430760F0BD1AB1838A0B4383821F
:1011300002E0838A8B4383827047028A4FF6F07302
:101140001A400282028A0A430282704782894FF261
:10115000FF731A40828182890A438281704721B1DC
:10116000828942F00202828104E082894FF6FD7397
:101170001A4082817047028A4FF6DF731A4002825A
:10118000028A0A430282704721B1028A42F48042F5
:10119000028204E0028A4BF6FF731A400282704713
:1011A000C1F308028280704701468888C0F30800B6
:1011B0007047818941F0010181817047028BD2B271
:1011C0000283028B42EA012202837047028B02F4FF
:1011D0007F420283028B0A430283704721B1828AD5
:1011E00042F02002828204E0828A4FF6DF731A40C6
:1011F0008282704721B1828A42F01002828204E02A
:10120000828A4FF6EF731A408282704721B1828A38
:1012100042F00802828204E0828A4FF6F7731A4095
:101220008282704721B1828942F40042828103E0C8
:101230008289C2F30E028281704721B1828A42F410
:101240000062828204E0828A4FF2FF731A40828237
:101250007047828A4FF6FB731A408282828A0A4361
:101260008282704721B1828A42F00202828204E0C7
:10127000828A4FF6FD731A40828270470246002030
:10128000B1F5007F00D100BF13880B400BB10120E6
:1012900000E00020704701F40072B2F5007F00D139
:1012A00000BFCA430280704770B502460024002385
:1012B0000025002040F66A16B14200D100BFC1F3FC
:1012C000421501F01F03012606FA03F3012D02D196
:1012D0009689334006E0022D02D1168A334001E0A0
:1012E000968A33400C12012606FA04F4168834401C
:1012F00013B10CB1012000E0002070BD10B5002238
:10130000002340F66A14A14200D100BF0A12012452
:101310009440A3B2DC43048010BD000000380140BB
:101320000044004000480040004C00400050004095
:1013300000F01CF800F08DF801F094FA01E002F0E2
:101340002EF9FCE7704700BFFEE700BFFEE700BFD5
:10135000FEE700BFFEE770477047704710B500F02A
:1013600054F800F045F910BD7047000070B56FF0FB
:101370000400FFF738F8294800684FF47A72B0FB90
:10138000F2F1B1F1807F01D301201DE021F07F4017
:10139000401E4FF0E022506150170F22002807DA5C
:1013A00013071D0E1E4B00F00F04241F1D5503E0F4
:1013B00013071C0E1B4B1C5400BF00204FF0E022F3
:1013C000906107201061002008B100BFFEE74FF0D8
:1013D000E020006940F001004FF0E021086170BD9D
:1013E0001149086000BF104909680029FBD1704706
:1013F00000B50246002305E04FF47A70FFF7F0FFD6
:10140000581CC3B29342F7D300BD0748006820B10F
:1014100005480068401E044908607047000000202D
:1014200018ED00E000E400E02800002008B54FF4CB
:10143000A060FEF789FF25208DF8000001208DF8BF
:1014400001008DF802008DF803006846FEF781FF69
:1014500008BD00B585B001210420FFF701FD012181
:101460008803FFF7FDFC4FF40070ADF81000182062
:101470008DF8130003208DF8120004A95248FFF7DD
:1014800031F84FF48060ADF8100004208DF813009F
:1014900004A94D48FFF726F84FF4E13000900020F2
:1014A000ADF80400ADF80600ADF80800ADF80C008A
:1014B0000C20ADF80A0069464448FFF778FDFFF7B5
:1014C000B5FF012240F225514048FFF708FE0121F7
:1014D0003E48FFF7F8FD05B000BD70B504460D4667
:1014E00029462046FFF75CFE00BF80212046FFF71B
:1014F000C5FE0028F9D070BD2DE9F04107460D4624
:101500001646002405E0295D3846FFF7E6FF601C1B
:10151000C4B2B442F7DB00BF40213846FFF7AEFE4D
:101520000028F9D0BDE8F08170B506460C460025CC
:1015300000BF615D3046FFF7D0FF6D1C605D002885
:10154000F7D100BF40213046FFF798FE0028F9D0C0
:1015500070BD2DE9F04105460C46260AE7B231463A
:101560002846FFF71DFE00BF80212846FFF786FEB4
:101570000028F9D039462846FFF712FE00BF802127
:101580002846FFF77BFE0028F9D0BDE8F08170B552
:1015900004460D46E1B20D48FFF702FE00BF802170
:1015A0000A48FFF76BFE0028F9D0204670BD10B541
:1015B000044600BF20210548FFF760FE0028F9D04F
:1015C0000248FFF7F1FD10BD00080140003801405E
:1015D00010B500F01DF800F0BBF810BD10B50948BB
:1015E00000F027F910BD10B5074800F022F910BD32
:1015F0000648006820B105480068401E034908609D
:101600007047000060000020602000202C000020B7
:1016100000B585B001214805FFF72FFC0121082006
:10162000FFF71EFCC020ADF8000003208DF802007B
:101630001C208DF803006946AA48FEF753FFAA480C
:10164000FFF79EF80020ADF808004BF6FF70ADF8EC
:101650000A003020ADF80C004FF48060ADF80E00A9
:101660000001ADF81000A148019001219E48FFF74C
:101670001EF901A99C48FFF79CF805B000BD70B5A4
:1016800004460D4600BF4FF400319748FFF736FA85
:101690000028F8D101219448FFF72DF900BF9449A3
:1016A0009148FFF709FA0028F9D0002278218E48E6
:1016B000FFF777F900BF8F498B48FFF7FDF9002846
:1016C000F9D021468848FFF766F900BF8949891C8F
:1016D0008548FFF7F1F90028F8D029468248FFF73E
:1016E0005AF900BF8349891C7F48FFF7E5F90028B4
:1016F000F8D001217C48FFF70AF970BD10B5044607
:1017000021464020FFF7BBFF10BD10B5044621461F
:101710000020FFF7B4FF10BD70B5002415E004F100
:10172000B001C8B2FFF7F1FF0020FFF7EEFF102075
:10173000FFF7EBFF002504E00020FFF7DFFF681C48
:10174000C5B2802DF8DB601CC4B2082CE7DB70BD8D
:1017500010B5C820FFF744FEAE20FFF7D6FF2020CB
:10176000FFF7D3FF1020FFF7D0FFB020FFF7CDFF2A
:10177000C820FFF7CAFF0020FFF7C7FF1020FFF7C0
:10178000C4FF4020FFF7C1FF8120FFF7BEFFFF200D
:10179000FFF7BBFFA120FFF7B8FFA620FFF7B5FFBB
:1017A000A820FFF7B2FF3F20FFF7AFFFA420FFF70D
:1017B000ACFFD320FFF7A9FF0020FFF7A6FFD5203D
:1017C000FFF7A3FFF020FFF7A0FFD920FFF79DFF51
:1017D0002220FFF79AFFDA20FFF797FF1220FFF78A
:1017E00094FFDB20FFF791FF2020FFF78EFF8D2075
:1017F000FFF78BFF1420FFF788FFAF20FFF785FF6F
:10180000FFF78AFF10BD10B58D20FFF77EFF142073
:10181000FFF77BFFAF20FFF778FF10BD10B58D20DD
:10182000FFF773FF1020FFF770FFAE20FFF76DFF8B
:1018300010BD2DE9F04105462F4600244EE004F18D
:10184000B001C8B2FFF761FF0020FFF75EFF102074
:10185000FFF75BFF00BF4FF400312348FFF74EF95D
:101860000028F8D101212048FFF745F800BF2049A2
:101870001D48FFF721F90028F9D0002278211A48E5
:10188000FFF78FF800BF1B491748FFF715F900282D
:10189000F9D040211448FFF77EF800BF1549891C94
:1018A0001148FFF709F90028F8D000260EE017F8D4
:1018B000011B0D48FFF76FF800BF0E49891C0A484D
:1018C000FFF7FAF80028F8D0701CC6B2802EEEDBC5
:1018D00001210548FFF71BF8601CC4B2082CAEDBE1
:1018E000BDE8F081000C01400054004040420F0070
:1018F000010003008200070070B504460D4601F0A8
:1019000012FB064632462946204601F03FFB70BDD9
:1019100070B504460D462946204601F0B5FB08B1D6
:10192000012070BD0020FCE7FC4A1060FC4A1160F9
:1019300070470CB5F94909680091F94909680191A6
:10194000DDE90012C0E900120CBDF44800687047E0
:10195000F348006870472DE9FF4F85B081464FF08E
:10196000000AD3460798A0EB090506990898461A7D
:101970001FFA89F00390069880B20290002D01DDD5
:10198000012705E00DB9002702E04FF0FF376D4257
:10199000002E02DD4FF0010806E016B94FF00008F6
:1019A00002E04FF0FF387642B54201DD2C4600E000
:1019B0003446002004901DE001F0B5FA0246019083
:1019C000DDE9021001F0E2FAAA44B344A24505DDC4
:1019D000AAEB040A0398384480B20390A34505DDBE
:1019E000ABEB040B0298404480B202900498401C78
:1019F00080B20490611C04988842DDDD09B0BDE826
:101A0000F08F70B505460C4623462A46C448016847
:101A1000C2480068FFF79FFFC0480560C0480460E7
:101A200070BD2DE9F04704460F46164604EB060844
:101A300001F079FA8146002C01DA002000E020460E
:101A4000054605E04A463946284601F09FFA6D1CD6
:101A5000B8F1800F01DA404600E08020A842F1DCB6
:101A6000BDE8F0872DE9F04707460C46164604EB23
:101A7000060801F058FA8146002C01DA002000E047
:101A80002046054605E04A462946384601F07EFADA
:101A90006D1CB8F1400F01DA404600E04020A8423A
:101AA000F1DCBDE8F08770B504460E460025D4E9A8
:101AB0000001FFF739FF012507E004EBC50254F8E8
:101AC00035005168FFF79DFF6D1CB542F5DB70BD19
:101AD0002DE9F04104460D4616461F462B46324678
:101AE00029462046FFF737FF3B4632463946204617
:101AF000FFF731FF3B46224629462046FFF72BFFE2
:101B00003B46324629463046FFF725FFBDE8F081C7
:101B10002DE9F04104460D4616461F463B46324627
:101B200029462046FFF7D4FF781B431E301B421E78
:101B3000691C601C00F0C4FEBDE8F0812DE9F04195
:101B400004460D4616461F46A019421E2B4629463E
:101B50002046FFF700FFE819431EA019421EE819AE
:101B6000411E2046FFF7F7FEE819431E224629468C
:101B70002046FFF7F0FEE9194B1EA1194A1EA119D4
:101B8000481E2946FFF7E7FEBDE8F0812DE9F04148
:101B900004460D4616461F463B4632462946204619
:101BA000FFF7CCFF7B1E721E691C601C00F088FED4
:101BB000BDE8F0812DE9F04706460F469046002427
:101BC0000FFA88F50320A0EB48000FFA80F952E0E5
:101BD00001F0A9F9824679193019524601F0D6F977
:101BE00001F0A1F982467919301B524601F0CEF975
:101BF00001F099F982463919701B524601F0C6F975
:101C000001F091F98246391B701B524601F0BEF972
:101C100001F089F98246791B301B524601F0B6F972
:101C200001F081F98246791B3019524601F0AEF974
:101C300001F079F98246391B7019524601F0A6F974
:101C400001F071F9824639197019524601F09EF976
:101C5000601C04B2B9F1000F05DAA000801D4844F1
:101C60000FFA80F907E0601B80000A3048440FFA41
:101C700080F9681E05B2AC42AADDBDE8F0872DE907
:101C8000FE4F06460F4690469A46DDF83090C8F162
:101C9000010B012002904FEA4800404201900024CD
:101CA000454601F040F9009034E0BBF1000F05DB40
:101CB0006D1E0198801C019001988344641C029859
:101CC000801C0290029883440AF0010078B16B00F6
:101CD0005B1C4B44DAB2791B3019FFF7C3FE63007B
:101CE0005B1C4B44DAB2391B7019FFF7BBFE0AF0DC
:101CF000020078B16B005B1C4B44DAB2791B301BDD
:101D0000FFF7B0FE63005B1C4B44DAB2391B701B5B
:101D1000FFF7A8FEAC42C8DBBDE8FE8F3000002014
:101D200034000020F8B506460D4614466000401CFD
:101D3000C2B2291B3046FFF795FE0020E2B2032312
:101D4000294600903046FFF79AFFF8BD2DE9FC5F69
:101D500006460F4691469846C9F1010A4FF0010B1D
:101D60004FEA49004042019000244D4601F0DBF863
:101D7000009040E0BAF1000F05DB6D1E0198801C59
:101D8000019001988244641C0BF1020BDA4408F0C4
:101D9000040048B179193019009A01F0F7F839199F
:101DA0007019009A01F0F2F808F0020048B1791BAE
:101DB0003019009A01F0EAF8391B7019009A01F005
:101DC000E5F808F0080048B13919701B009A01F0D5
:101DD000DDF87919301B009A01F0D8F808F00100FD
:101DE00048B1391B701B009A01F0D0F8791B301BE9
:101DF000009A01F0CBF8AC42BCDBBDE8FC9F2DE9BA
:101E0000F04786B005460E4614461F46DDF838807A
:101E10004FF000096846FFF78CFDDDE90001CDE9D0
:101E200002013146284600F061FF002000F05BFF10
:101E3000B8F5B47F01DD4FF4B478002000F034FF32
:101E400032192946684600F067FFDDE90001CDE957
:101E50000401DDE90401FFF767FD384602F004FAEA
:101E6000814614E0484600F01FFF321929466846B3
:101E700000F052FFDDE90001CDE90401DDE90401D4
:101E8000FFF7BFFDFD49484601F0D0FF81464046BF
:101E900002F0EAF98246494602F066FAE2D32819CE
:101EA0003146FFF7AEFDDDE90201FFF73DFD06B06B
:101EB000BDE8F08710B5029C10BD2DE9F041054644
:101EC0000E4617469846069C022101FB1471CAB2C1
:101ED00028193146FFF7A5FD022303FB1473DAB27C
:101EE00006EB0803591E2819FFF79BFD022000FB93
:101EF0001480C2B231192846FFF7B4FD022303FB58
:101F00001483DAB23119EB19581EFFF7ABFD311902
:101F1000281901232246FFF719FF3119EA19121B6C
:101F2000501E02232246FFF711FF06EB0802121B88
:101F3000511EEA19121B501E04232246FFF706FF0A
:101F400006EB0802121B511E281908232246FFF730
:101F5000FDFEBDE8F0812DE9F84305460E46174623
:101F60009846089C022101FB147228194346314609
:101F7000FFF70CFE022000FB1480401E3119EA1905
:101F8000121B0090501E01232246FFF778FE02200C
:101F900000FB1480401E31190090281902232246AC
:101FA000FFF76DFEBDE8F8832DE9FF4F99B00646B7
:101FB0000F4698461B9800FB00F908FB08FA4FEA09
:101FC000490017904FEA4A00169000254446002029
:101FD000159017986043149000F0A5FF39191390DD
:101FE0007019139A00F0D2FF00F09DFF3919139079
:101FF000701B139A00F0CAFF00F095FF391B139075
:102000007019139A00F0C2FF00F08DFF391B139076
:10201000701B139A00F0BAFF484602F02EF9002216
:10202000974BCDE90C0102F03EF8CDE9100109FB18
:1020300018A002F022F9CDE90E01DDE9102301F02C
:102040008BFFCDE9120102F036F9834636E06D1CB4
:10205000DDE9150108441590BBF1000F03DA15986E
:10206000504483440AE0641E17991498401A14904F
:1020700015980AEB00011498081A834400F053FFE6
:10208000391913907019139A00F080FF00F04BFF7C
:1020900039191390701B139A00F078FF00F043FF7A
:1020A000391B13907019139A00F070FF00F03BFF7A
:1020B000391B1390701B139A00F068FFDDE91410B0
:1020C0008842C4DB09FB0AF002F0D7F8CDE9100121
:1020D000611E01FB09F1621E01FB02F002F0CDF866
:1020E000CDE90C01284602F0C8F80022654BCDE985
:1020F000040101F031FFCDE90801284602F0BDF8E6
:102100000022604BCDE9000101F026FFCDE904017A
:10211000504602F0B2F8CDE90201DDE9042301F0F6
:10212000C2FFCDE90601DDE9082301F0BCFFCDE9DE
:102130000A01DDE90C2301F00FFFCDE90E01DDE915
:10214000102301F0AAFFCDE9120102F0B4F8834692
:1021500037E0641E17991498401A1490BBF1000FD1
:1021600004DD1498A9EB000083440AE06D1CDDE94E
:102170001501084415901498A9EB0001159808441E
:10218000834400F0D0FE391913907019139A00F0AF
:10219000FDFE00F0C8FE39191390701B139A00F071
:1021A000F5FE00F0C0FE391B13907019139A00F071
:1021B000EDFE00F0B8FE391B1390701B139A00F06F
:1021C000E5FE002CC5DC1DB0BDE8F08F2DE9F04721
:1021D00004460D4616461F4600F0A5FE804600F058
:1021E000A8FE814600F0ACFE012000F099FE3B46BF
:1021F000324629462046FFF7D7FE404600F090FEC3
:10220000012000F093FEE9B2E0B20123002200F0C9
:1022100018FE484600F08AFE00F08BFE18B103203D
:1022200000F079FF02E0022000F075FF00F06CFF83
:1022300000F08AFE3B46324629462046FFF7B4FEB0
:10224000BDE8F0872DE9F04704460D4616461F46C7
:10225000DDE908893B46324629462046FFF77BFBED
:102260004B46424639463046FFF775FB2B46224621
:1022700049464046FFF76FFBBDE8F0870000A040ED
:102280000000D03F0000E03F2DE9F04F8BB08046CA
:10229000894615461C46DDE914AB002002900190EA
:1022A000A14509DD4C44A4EB0909A4EB090445440C
:1022B000A5EB0808A5EB08055C4509DD5C44A4EB2B
:1022C0000B0BA4EB0B045544A5EB0A0AA5EB0A057E
:1022D000A14509DD4C44A4EB0909A4EB09044544DC
:1022E000A5EB0808A5EB0805D94519D146463746A0
:1022F000B54201DA2E4602E0BD4200DD2F46B2456E
:1023000001DA564602E0BA4500DD5746B81B401CCC
:10231000C2B249463046FFF784FB0BB0BDE8F08FF0
:10232000A5EB08000890A4EB09000790AAEB0800B1
:102330000690ABEB09000590AAEB05000490ABEB0F
:10234000040003900020029001905C4501D10994A3
:1023500001E0601E0990CDF8289022E007990298CC
:1023600090FBF1F000EB08060599019890FBF1F065
:1023700000EB080708990298084402900699019812
:1023800008440190BE4202DD3744BE1BBF1BB81B90
:10239000401CC2B230460A99FFF743FB0A98401C22
:1023A0000A90DDE909108842D8DD0A98001B0499DB
:1023B000484302900A98A0EB09000699484301900F
:1023C00021E0DDE9020190FBF1F046190599019841
:1023D00090FBF1F000EB0807049902980844029082
:1023E0000699019808440190BE4202DD3744BE1BA5
:1023F000BF1BB81B401CC2B230460A99FFF711FB45
:102400000A98401C0A900A985845DADD00BF84E714
:102410002DE9FF4F83B0054688469946DDF840B068
:10242000B8F1000101DB0A4600E04A421046D2172B
:1024300000EB5272D210A0EBC20A40464FEAE8719C
:1024400008EB5171C910029158464FEAEB710BEB42
:102450005171C910019105EB0900002808DB7F2D9F
:1024600006DC08EB0B00002802DBB8F13F0F02DDB1
:1024700007B0BDE8F08FB8F1000F04DA0298401EF3
:102480000290CAF1080A4FEAEB710BEB5171C910C7
:10249000ABEBC10111B10198401C01900027B9E0DC
:1024A0000298C619072E00DDB8E016F1020F78DD9C
:1024B0000024AAE060197F2800DDA9E06019002847
:1024C0006EDB002E4ADB00F02EFD012816D1291903
:1024D000304600F040FD0090059907FB09110819EE
:1024E00000F0FAFC00FA0AF000990843C0B200902C
:1024F00029193046009A00F03CFD2FE000F013FD52
:10250000A8B92919304600F026FD0090059907FB6F
:102510000911081900F0E0FC00FA0AF1009888435C
:10252000009029193046009A00F023FD16E0291981
:10253000304600F010FD0090059907FB09110819BD
:1025400000F0CAFC00FA0AF000994840C0B20090BE
:1025500029193046009A00F00CFD00BFBAF1000FB7
:1025600052D0072E50DA16F1020F4DDD00F0DBFCE1
:10257000012817D12919701C00F0EDFC0090059975
:1025800007FB0911081900F0A7FCCAF1080108416E
:102590000099084300902919701C009A00F0E9FC8A
:1025A00032E036E000F0BFFCB8B92919701C00F029
:1025B000D2FC0090059907FB0911081900F08CFC6A
:1025C000CAF1080140FA01F10098884300902919E6
:1025D000701C009A00F0CDFC16E02919701C00F068
:1025E000BAFC0090059907FB0911081900F074FC6A
:1025F000CAF1080108410099484000902919701C4F
:10260000009A00F0B6FC00BF641C4C45FFF652AFC8
:1026100000BF7F1C01988742FFF642AF00BF00BF9A
:1026200026E72DE9F84F06460F4691469846DDF815
:1026300028A008F10700C11700EB5171C9100091E3
:1026400006EB0800002807DB7F2E05DC07EB0A00FD
:10265000002801DB3F2F01DDBDE8F88F00251DE0DC
:10266000002418E0E11704EB5171CA10009905FB32
:102670000191501800F030FC04F007028021114154
:10268000084038B100F04FFC8346791930195A469A
:1026900000F07CFC641C4445E4DB6D1C5545DFDB2D
:1026A00000BFD9E72DE9F74F84B00746884600F010
:1026B0008AFD054600F037FC019000F07CFD029099
:1026C000DDE90110884201D0012000E000200390E4
:1026D000802F0EDAB8F1400F0BDA052000FB0570F1
:1026E000401E002805D4082000FB0580401E00285D
:1026F00002D507B0BDE8F08F00243EE0052C01D1E3
:10270000002608E0069901EB8101554A1144081999
:1027100000F0E2FB06464FF000092AE006F0010057
:1027200008B1019800E002980090009808B9039859
:10273000E0B14FF0000A17E04FF0000B0EE009FB8C
:10274000058202EB0B0104FB057202EB0A00009A02
:1027500000F01CFC0BF1010000F0FF0BAB45EEDBC1
:102760000AF1010000F0FF0AAA45E5DB761009F145
:102770000109B9F1080FD1DB641C062CBEDB00BFD8
:10278000B7E72DE9F04706460F461546002406F048
:10279000FF0807F0FF0900F016FD82461AE0285DE9
:1027A0000A2809D1082000FB0A9000F0FF0906F072
:1027B000FF08601CC4B20DE02A5D49464046FFF7A1
:1027C00071FF0AEB4A0008EB400000F0FF08601CB4
:1027D000C4B200BF285D0028E1D1BDE8F0872DE933
:1027E000F05F06468A4690461D464FF0000B00F00B
:1027F000EAFC814600242DE0281B401EC1B20A20BD
:1028000000F06DFBB8FBF0F00A21B0FBF1F201FB28
:102810001207BBF1000F0FD1681EA0420CDD4FB9AB
:1028200009EB4901490001FB046030225146FFF7E2
:1028300039FF0DE04FF0010B07F13001CAB209EB8F
:102840004901490001FB04605146FFF72BFF00BF1F
:10285000601CC4B2AC42CFDBBDE8F09F7047000003
:10286000D050000810B5FEF7B3FE10BD10B5002023
:1028700000F041FC10BD10B500F039FC10BD2DE991
:10288000F04105460E46144600F053FB58B1314660
:10289000284600F060FB40EA04073A4631462846E5
:1028A00000F067FB0AE03146284600F054FB20EABE
:1028B00004073A463146284600F05BFBBDE8F0814C
:1028C0002DE9FF4F81B080460C46994604EB090282
:1028D000511ECA1701EB5272D2102046E31704EBC7
:1028E0005373A2EBE3020092B8F1800F01DC402C9D
:1028F00002DD05B0BDE8F08F47465DE00098B8B94D
:1029000025462646E11704EB5171C910A4EBC1031B
:10291000A9F10101DFF828C41CF801109940CAB2DE
:10292000E11704EB5171C8103946FFF7A8FF42E0E8
:1029300025462646E11704EB5171C910A4EBC101ED
:10294000C1F10701FE4B595CA346E31704EB537337
:10295000DB10A4EBC3039940CAB2E11705EB517138
:10296000C8103946FFF78BFF4FF0010A0BE02546F0
:10297000E11704EB51710AEBE100FF223946FFF742
:102980007EFF0AF1010A00988245F0DBA9F10101FE
:102990000D19E91705EB5171C910A5EBC101E84B01
:1029A0005A5C2646E11704EB5171CB100099581878
:1029B0003946FFF764FF7F1C03984044B84201DDAD
:1029C000802F9BDB00BF94E72DE9F05F82460C4629
:1029D0001746E219511ECA1701EB5272D210204657
:1029E000E31704EB5373A2EBE309B9F1000F16D11F
:1029F00025462646E11704EB5171C910A4EBC1032B
:102A0000791EDFF83CC31CF801109940CAB2E117E7
:102A100004EB5171C8105146FFF731FF3FE02546E6
:102A20002646E11704EB5171C910A4EBC101C1F1B5
:102A30000701C34B595CA346E31704EB5373DB1048
:102A4000A4EBC3039940CAB2E11705EB5171C8105A
:102A50005146FFF714FF4FF001080BE02546E11740
:102A600004EB517108EBE100FF225146FFF707FF2D
:102A700008F10108C845F1DB791E0D19E91705EBCE
:102A80005171C910A5EBC101AD4B5A5C2646E11747
:102A900004EB517109EBE1005146FFF7F0FEBDE890
:102AA000F09F2DE9F84F0446A146A246A5485044A0
:102AB0004FEA500A54462146484601F00FFA214693
:102AC000009001F0B3F9834601F014FC07460022A0
:102AD0009D4B01F0E8FA054601F01FFC0446204634
:102AE000BDE8F88F30B503460BB9002030BD00219A
:102AF0009A0F9B00012A01D9491C521A0F240DE09C
:102B00004900920002EB93720D46012000EB45054F
:102B10009B00AA4201D3521B491C641E002CEFD11A
:102B20000846E3E72DE9FF4F8BB092469B46DDE96F
:102B30001889DBF800100C98081A4043DAF80020D6
:102B40000B99521ADAF80030591A02FB01000A9068
:102B50000A9801F089FB0890FFF7A3FF099001F0A4
:102B6000C9FB04460D46DBF800200C99501A01F011
:102B700084FBCDE90801DAF800200B99501A01F026
:102B80007CFBCDE90601DDE9082302F043F90646A6
:102B90000F461A98002842D042464B4630463946E6
:102BA00001F0DAF9CDE9000102F0F4F922462B46F2
:102BB000CDE9020101F077FACDE906010B9801F0A9
:102BC0005CFBCDE90401DDE9062301F0C5F9CDE99F
:102BD000080101F070FBCAF8000042464B4630463F
:102BE000394601F0B9F9CDE9000102F021FA224697
:102BF0002B46CDE9020101F056FACDE906010C9809
:102C000001F03BFBCDE90401DDE9062301F0A4F965
:102C1000CDE9080101F04FFBCBF8000041E042464E
:102C20004B463046394601F038FACDE9000102F052
:102C3000B1F922462B46CDE9020101F034FACDE983
:102C400006010B9801F019FBCDE90401DDE906232B
:102C500001F082F9CDE9080101F02DFBCAF800006E
:102C600042464B463046394601F017FACDE900019D
:102C700002F0DEF922462B46CDE9020101F013FAFB
:102C8000CDE906010C9801F0F8FACDE90401DDE97F
:102C9000062301F061F9CDE9080101F00CFBCBF846
:102CA00000000FB0BDE8F08F2DE9F047824600210B
:102CB000504601F04FFB02D1002001460CE0504687
:102CC00001F018FB8046214A214B01F0ECF9064641
:102CD0000022204B01F059FA044601F01EFB1E4968
:102CE0008860BDE8F0871C49C86070471A4A1060C8
:102CF000516070472DE9F04106460F4614461D46C7
:102D000039463046FFF7F2FF2846FFF7ECFF204632
:102D1000FFF7CAFFBDE8F0812DE9F04188B0044615
:102D20000D461646059504960B49886801F0E2FAAF
:102D300007460948C068084ACDE9007102900DE0D5
:102D40004800002062CF763F0000E03F6E861BF017
:102D5000F92109400080664038000020516804AB2A
:102D6000106805AAFFF7DEFE059806900498079004
:102D7000DDE90601C4E9000108B0BDE8F0812DE9F4
:102D8000F04104460D4616461F46FFF774FD2946DE
:102D9000204600F079F9B04220D13A462946204633
:102DA00000F0F4F8611EC8B23B4632462946FFF7F0
:102DB000E6FF611CC8B23B4632462946FFF7DFFFFB
:102DC000681CC1B23B4632462046FFF7D8FF681E5A
:102DD000C1B23B4632462046FFF7D1FFBDE8F08145
:102DE00070B506460C4615462146304600F04CF9B3
:102DF000A8420BD10CB9002070BD601EC1B22A469A
:102E00003046FFF7EDFF401CC0B2F5E70020F3E7C6
:102E100070B506460C4615462146304600F034F99A
:102E2000A8420CD13F2C01D1002070BD601CC1B262
:102E30002A463046FFF7D4FF401CC0B2F5E7002019
:102E4000F3E72DE9F0470746884615469A464FF0C6
:102E5000000900263C4615E0EAB2E0B24146FFF721
:102E6000D7FF8146EAB2E0B24146FFF7B9FF064616
:102E700009EB0602A8EB060153462046FFF7A4FD26
:102E8000601C04B24146204600F0FEF8A84201D181
:102E9000802CE1DB7C1E15E0EAB2E0B24146FFF790
:102EA000B7FF8146EAB2E0B24146FFF799FF064616
:102EB00009EB0602A8EB060153462046FFF784FD06
:102EC000601E04B24146204600F0DEF8A84201D15F
:102ED000002CE1DCBDE8F08701460878704710B5AA
:102EE0000246012000E050430B1EA1F10104E1B2B3
:102EF000F9D110BD10B504460848006858B9FFF76D
:102F0000BAFCFFF7B3FC4FF47A7090FBF4F003497E
:102F10000860012010BD0020FCE700002C0000200C
:102F200005490870704704480078704703490870E5
:102F30007047024800787047500000205100002080
:102F40000020984908707047012096490870704722
:102F500094480078704702469248007820B1924821
:102F600000EBC210405C7047904800EBC210405C20
:102F7000F9E78C4B1B7823B18B4B03EBC0135A54EE
:102F800003E08A4B03EBC0135A547047F0B5144664
:102F90007F2801DC3F2900DDF0BD824A1278C2B3F0
:102FA000DCB1CD1701EB5575ED107F4E06EBC51565
:102FB0002D5C0B46CE1701EB5676F610A1EBC6073B
:102FC0000126BE4035430A46CE1701EB5676F61071
:102FD000754F07EBC616355454E0CD1701EB557508
:102FE000ED10714E06EBC5152D5C0B46CE1701EBAF
:102FF0005676F610A1EBC6070126BE40B5430A4639
:10300000CE1701EB5676F610674F07EBC616355410
:1030100038E0FFE7DCB1CD1701EB5575ED10634EDD
:1030200006EBC5152D5C0B46CE1701EB5676F61058
:10303000A1EBC6070126BE4035430A46CE1701EB79
:103040005676F610594F07EBC61635541AE0CD17D1
:1030500001EB5575ED10554E06EBC5152D5C0B4675
:10306000CE1701EB5676F610A1EBC6070126BE403F
:10307000B5430A46CE1701EB5676F6104B4F07EBD9
:10308000C616355400BF87E7F0B504467F2C01DC37
:103090003F2901DD0020F0BD4248007898B10A4682
:1030A000C81701EB5070C0103F4B03EBC010005D20
:1030B0000D46CB1701EB5373DB10A1EBC303184193
:1030C00000F00100E7E70B46C81701EB5070C01095
:1030D000364F07EBC010005D0E46CF1701EB577758
:1030E000FF10A1EBC707384100F00100D3E710B58E
:1030F000FEF774FA10BD10B5044622464FF4005195
:10310000294800F081FE10BD10B54FF4005127484A
:1031100000F081FE10BD70B5064636B1012E0BD011
:10312000022E24D0032E3AD109E04FF400521F4959
:103130001D4800F057FE33E0FFF7E6FF30E00024C3
:1031400012E000250DE0184800EBC410405D17495F
:1031500001EBC411495D0843134901EBC411485503
:103160006D1C802DEFDB641C082CEADB18E00024CA
:1031700012E000250DE00C4800EBC410405D0B4947
:1031800001EBC411495D8843074901EBC41148555F
:103190006D1C802DEFDB641C082CEADB00E000BF17
:1031A00000BF70BD520000206000002060200020A1
:1031B000064908707047054800787047012801DB10
:1031C0000349087070470248007870475300002098
:1031D000540000202DE9F04FCFB03F204D901F202C
:1031E0004C90002401254B904FF0010900204A909B
:1031F0009FE0FFF73BFB002467E04D9801F03DF8AE
:10320000CDE90A01284601F038F8CDE90001204651
:1032100001F044F88246FE4AFE4B00F044FF0746A8
:10322000DDE9002300F0B1FFCDE9020101F0B2FEBB
:10323000CDE906014B9801F020F8CDE90401DDE964
:10324000062300F030FFCDE90801DDE90A2300F094
:1032500083FECDE90C0101F02EF82CA941F82400E1
:103260004C9801F00AF8CDE90A01284601F005F86A
:10327000CDE90201204601F011F80746E44AE54B8A
:1032800000F011FFCDE90001DDE9022300F07DFF30
:10329000CDE9040101F0CCFECDE906014B9800F028
:1032A000ECFF8246DDE9062300F0FDFECDE90801D2
:1032B000DDE90A2300F050FECDE90C0100F0FBFF30
:1032C0000EA941F82400601CC4B2AC4295DB002476
:1032D00017E0601CC6B20FE00EAF57F826302CAFD7
:1032E00057F826200EAF57F824102CAF57F82400BB
:1032F000FEF731FB701CC6B2681EB042ECDA601CEF
:10330000C4B2A81EA042E4DA4D44142D00D00DB979
:10331000C9F100096420FEF763F8FFF7ACFA4A9898
:10332000401C4A903C2804D100204A904FB0BDE890
:10333000F08F5EE72DE9F0410027002415E000251D
:1033400010E000260BE032462946204600F094FCAF
:103350007F1CB7F5487F01DBBDE8F081761C3C2E71
:10336000F1DB6D1C3C2DECDB641C0C2CE7DB00BF9F
:10337000F2E7F0B5ADF6042D00263C274FF42061AE
:1033800001A800F048FD022000F024FD00243EE0EA
:1033900004EB840001A901EB80000069B0BB00F0E0
:1033A0000FFD7F2190FBF1F201FB120004EB840181
:1033B00001AA42F8210000F003FD0546C01705EB05
:1033C00090608011A5EB801004EB840101AA02EB50
:1033D00081014860002004EB840102EB8101C86098
:1033E00000F0EEFC0546C01705EB5070C010A5EBD1
:1033F000C000401C04EB840101AA02EB810188603B
:10340000012004EB840102EB81010861641C802C23
:10341000BEDBC3E03846FFF76DFD012807D1761CFF
:1034200007EB8700B04202DC0DF6042DF0BD00244E
:10343000B1E004EB840001A901EB8000006988BBC6
:10344000002004EB840101AA42F8210000F0B8FC3E
:103450000546C01705EB90608011A5EB801004EBCA
:10346000840101AA02EB8101486000F0A9FC054635
:10347000C01705EB5070C010A5EBC000401C04EB5A
:10348000840101AA02EB81018860002004EB840121
:1034900002EB8101C860012004EB840102EB810191
:1034A000086177E0FFE704EB840001A901EB8000ED
:1034B000C068401C04EB840101AA02EB8101C860D2
:1034C00004EB840001A951F820007C2805DB0020D2
:1034D00004EB840102EB810108610020FFF720FD6D
:1034E00004EB84050DF1040C0CEB85056B6804EB13
:1034F00084055CF8252004EB84050CEB85056968E0
:1035000004EB84055CF82500FEF725FA0120FFF79F
:1035100007FD04EB840001A901EB8000C06804EB07
:10352000840101AA02EB8101896888420FD1002041
:1035300004EB840102EB8101C86004EB840001A963
:1035400051F82000401C04EB840142F8210004EBF8
:10355000840001A901EB80008068082191FBF0F054
:1035600004EB840101AA52F821100844451E04EB23
:1035700084020DF1040C0CEB8202536804EB84020C
:103580000CEB8202516804EB84025CF822002A46AC
:10359000FEF7E1F9641C802CFFF64BAF3AE71FB54C
:1035A000FFF764F9402080231B4A00210090084661
:1035B000FEF72EFFFFF75FF94FF4FA60FDF710FFFB
:1035C000FFF754F90120FFF7F9FD14A20021084686
:1035D000FFF7D7F8FFF74FF94FF47A70FDF700FFC8
:1035E0000220FFF7EBFD0DA208210020FFF7C9F82C
:1035F000FFF741F94FF47A70FDF7F2FE0320FFF771
:10360000DDFD06A218210020FFF7BBF80AE000004C
:103610004AD8124DFB211940086300087465737481
:1036200000000000FFF727F94FF47A70FDF7D8FE8D
:10363000FFF71CF900240DE004EB840042003F2357
:1036400000210846FEF787F9FFF715F96420FDF71A
:10365000C7FE641C142CEFDB00240FE004EB840095
:103660008021A1EB40023F2300218020FEF773F967
:10367000FFF701F96420FDF7B3FE641C142CEDDBA9
:103680004FF47A70FDF7ACFE002538E00DB9FFF776
:10369000EDF800240FE06100C1F140038021A1EBAF
:1036A000840260002146FEF749FAFFF7E4F864203F
:1036B000FDF796FEA41C1F2CEDDB0DB9FFF7D6F825
:1036C0004FF4FA70FDF78CFE1F240FE06100C1F18A
:1036D00040038021A1EB840260002146FEF756FAE8
:1036E000FFF7C9F86420FDF77BFEA41E002CEDDC7B
:1036F0000020FFF715FC0020FFF718FC6D1C022DC1
:10370000C4DB0120FFF70CFC0120FFF70FFC0025B4
:1037100040E00DB9FFF7AAF8002413E00220610091
:10372000C1F14001CBB28021A1EB8401CAB200906B
:1037300060002146FEF7C1FBFFF79DF86420FDF70E
:103740004FFEA41C1F2CE9DB0DB9FFF78FF84FF4D7
:10375000FA70FDF745FE1F2413E002206100C1F15D
:103760004001CBB28021A1EB8401CAB2009060007D
:103770002146FEF7F0FBFFF77EF86420FDF730FEF0
:10378000A41E022CE9DC0020FFF7CAFB0020FFF793
:10379000CDFB6D1C022DBCDB0120FFF7C1FB01201E
:1037A000FFF7C4FBFFF762F81F233F2219461046BC
:1037B000FEF7FAFBFFF75FF84FF47A70FDF710FEA3
:1037C000FFF754F81F23102219463F20FEF7ECFBA9
:1037D000FFF751F84FF47A70FDF702FEFFF746F855
:1037E0001F233F2219461046FEF7F0FCFFF743F86F
:1037F0004FF47A70FDF7F4FDFFF738F81F2310221D
:1038000019463F20FEF7E2FCFFF735F84FF47A70D7
:10381000FDF7E6FDFFF72AF81E221F213F20FEF7E5
:10382000C9F9FFF728F84FF47A70FDF7D9FDFFF7D3
:103830001DF81E221F213F20FEF774FAFFF71BF828
:103840004FF47A70FDF7CCFDFFF710F832203C21E1
:103850001E236422CDE900100A210520FEF7F2FCA8
:10386000FFF709F84FF47A70FDF7BAFDFEF7FEFF97
:1038700032203C211E236422CDE900100A210520BC
:10388000FEF702FDFEF7F7FF4FF47A70FDF7A8FD93
:10389000FEF7ECFF10200346CA4A002100900846BC
:1038A000FEF7B6FDFEF7E7FF4FF47A70FDF798FDDF
:1038B00020200346C44A002100901020FEF7A8FDF6
:1038C000FEF7D9FF4FF47A70FDF78AFD40200346DA
:1038D000BE4A002100903020FEF79AFDFEF7CBFF94
:1038E0004FF47A70FDF77CFDFEF7C0FF00240BE07B
:1038F00000231E221F213F200094FEF780FAFEF7CE
:10390000BAFFFEF7B3FF641CB4F5B87FF0DD1E22EA
:103910001F213F20FEF74EF9FEF7ADFF4FF4FA707E
:10392000FDF75EFD002411E022461F213F20FEF737
:10393000F9F91E221F213F20FEF73CF9FEF79BFFFD
:10394000FEF794FF6420FDF74BFD641C0A2CEBDBB3
:10395000002426E0204600F087FC0646FFF7A4F985
:103960001F213F20FFF7C2F93D223F216846FFF7A4
:10397000D3F9DDE90001CDE902010522DDE902010B
:10398000FEF7D0F91E221F213F20FEF713F90A226D
:103990001F213F20FEF7C6F9FEF76DFFFEF766FF19
:1039A000641CB4F5347FD5DB00242BE004F53470BF
:1039B00000F05AFC0646FFF777F904F13F001F219B
:1039C000FFF794F904F13F013D226846FFF7A4F99F
:1039D000DDE90001CDE902010522DDE90201FEF782
:1039E000A1F904F13F001E221F21FEF7E3F804F1C4
:1039F0003F000A221F21FEF795F9FEF73CFFFEF774
:103A000035FF641C5F2CD1DBFFF7B3FCFFF792FCA2
:103A1000FFF7E0FB4FF47A70FDF7E2FCFEF726FFBC
:103A20000220FFF7CBFB6AA210210820FEF7A9FEB7
:103A3000FEF721FF4FF4FA60FDF7D2FCFEF716FF08
:103A400028208023654A0A2100900020FEF7E0FC30
:103A5000FEF711FF00BFFEE700BFFEE7ADF5587DA2
:103A60000025012000F0B6F9002407E0A01E00EBBD
:103A70008000400096A941F82400641C422CF5DB2C
:103A8000FEF7F4FE9DE0642D27D000F099F906467C
:103A9000C01706EB90708010A6EB8000401C00B2AF
:103AA00005EB45016A4602EB4101888000F088F988
:103AB000422190FBF1F201FB120496A830F8240099
:103AC00000B205EB45012DF81100002005EB450182
:103AD0006A4602EB410148806D1C002468E004EB5B
:103AE0004400694601EB4000408804EB44016A460B
:103AF00002EB41018988084400B204EB440102EB67
:103B00004101488004EB44026B4603EB4202B2F9E8
:103B10000220511C04EB44023DF91200FDF7ECFEBB
:103B200004EB44026B4603EB4202B2F9021004EBD1
:103B300044023DF91220501CFDF7DEFE04EB440266
:103B40006B4603EB4202B2F9021004EB44023DF96A
:103B50001200FDF7D1FE04EB44026B4603EB420278
:103B6000B2F9021004EB44023DF91220501EFDF799
:103B7000C3FE04EB44026B4603EB4202B2F902209F
:103B8000511E04EB44023DF91200FDF7B5FE04EBB3
:103B90004400694601EB4000B0F902003F2806DD11
:103BA000002004EB44016A4602EB41014880641C9A
:103BB000AC4294DB1E20FDF713FCFEF75CFEFEF723
:103BC00055FE60E7E85D0008085E0008885E0008B2
:103BD0002053686F7720456E6420000088600008DD
:103BE0002DE9F0438BB004460D4616461F46FDF7FF
:103BF000AFFE8046FDF7A9FE81462A46214601A870
:103C0000FFF78AF8DDE90101CDE90901A1192A468A
:103C100001A8FFF781F8DDE90101CDE90701EA1903
:103C2000A11901A8FFF778F8DDE90101CDE9050147
:103C3000EA19214601A8FFF76FF8DDE90101CDE996
:103C40000301DDE90901FDF76FFEDDE90701FDF77D
:103C5000D8FEDDE90501FDF7D4FEDDE90301FDF73E
:103C6000D0FEDDE90901FDF7CCFE41464846FDF7EF
:103C70005BFE0BB0BDE8F0832DE9F0438DB0074645
:103C80000C46154600BFC4EB041040003C2190FBDD
:103C9000F1F0C7EB071100EB4109484600F0E4FAE8
:103CA0008046012342461F213F20FFF723F81F22B1
:103CB000312101A8FFF730F8DDE90101CDE90B0161
:103CC0001F213F20DDE90B23FDF745FE05EB4500F5
:103CD00040003C2190FBF1F004EB440100EB410972
:103CE000484600F0C1FA8046012342461F213F208A
:103CF000FFF700F81F222A2101A8FFF70DF8DDE9E0
:103D00000101CDE909011F213F20DDE90923FDF76C
:103D100022FE05EB4501480000F0A6FA804601238B
:103D200042461F213F20FEF7E5FF1F22232101A865
:103D3000FEF7F2FFDDE90101CDE907011F213F2078
:103D4000DDE90723FDF707FE002625E0C6EB061197
:103D5000480000F089FA8046012342461F213F2097
:103D6000FEF7C8FF1F22222101A8FEF7D5FFDDE9DB
:103D70000101CDE905011F22272101A8FEF7CCFF93
:103D8000DDE90101CDE90301DDE90323DDE90501F9
:103D9000FDF7E1FD701CC6B20C2ED7DB02221F21FD
:103DA0003F20FDF7BFFF1E221F213F20FDF702FF2E
:103DB000FEF761FDFEF75AFD0DB0BDE8F08300008F
:103DC0000649074A0868504343F239021044086024
:103DD0004008704701490860704700005800002003
:103DE0006D4EC64140EA01039B0703D009E008C9B4
:103DF000121F08C0042AFAD203E011F8013B00F8B0
:103E0000013B521EF9D27047D2B201E000F8012BFB
:103E1000491EFBD270470022F6E710B513460A464A
:103E200004461946FFF7F0FF204610BDF0B480EAC3
:103E30000102D40F4200B2EB410F02D20246084603
:103E400011464A0042D0C30DDDB2C1F3C752AD1ACC
:103E5000202D35DAC1F3160141F4000204B15242BB
:103E6000C5F1200602FA06F12A411044B3EBD05FF7
:103E700023D0C4B1012DA0EBC35009DCF0BC4FF03E
:103E8000004202EAC352DBB200F5000000F0B0BA13
:103E9000400000F1807000EBC350A0F1807040EA58
:103EA000D170490009E0490841EAC071A0EBC35054
:103EB00000F50000400800EBC350F0BC00F08FBAE2
:103EC0006142012202EB4101001BF6E7F0BC7047A2
:103ED00081F00041AAE780F00040A7E730B480EA13
:103EE000010202F0004530F0004221F0004013D002
:103EF00090B1C30DD40DC2F31601C0F31600E41A3D
:103F000041F4000140F400027D34914201D3641C6D
:103F100000E04900002C02DA30BC002070474FF46A
:103F200000000023914201D3891A034340084FEA5D
:103F30004101F7D151B1914202D14FF0004105E06A
:103F400002D24FF0010101E06FF0010103EBC45018
:103F5000284430BC00F043BA2DE9FE4F804681EA88
:103F60000300C00F0C46009021F0004123F00045F3
:103F7000B8EB0200A94105D24046214690461C46B6
:103F80000B46024623F00040104347D0270DC7F3ED
:103F90000A00C3F30A510290401A019040286BDADC
:103FA000C3F3130040F4801B0098924620B1002315
:103FB000D2EB030A63EB0B0B01985946C0F14002A8
:103FC000504600F0DBF906460D4650465946019A28
:103FD00000F0F3F910EB08006141002487EA115268
:103FE00084EAE7731A4340D0009A62B3019A012A27
:103FF0004FEA075215DC001B61EB02014FF0004253
:1040000002EA0752CDE90042001C41F58011324618
:104010002B4600F02AFA03B0BDE8F08F4046214657
:10402000F9E7001B61EB0201001C41F58013001849
:104030005B412018A2F5001747EB030140EAD57059
:10404000B6196D4111E06D084FEA360645EAC075B4
:104050004FEA0752001B61EB0201001C41F5801181
:1040600049084FEA30000019514132462B4603B04F
:10407000BDE8F04F00F0EAB90098012240000023AB
:10408000D0EB020263EBE073009821464FEAE07444
:10409000B8EB000061EB0401E9E783F000435BE764
:1040A00081F0004158E72DE9FE4F81EA030404F056
:1040B000004421F0004100944FF0000B23F0004336
:1040C00050EA01045ED052EA03045BD0C3F30A5401
:1040D000C1F30A552C44A4F2F3340194A0FB02541A
:1040E000C1F3130141F48011C3F3130343F48013AC
:1040F00001FB024400FB034E840A970A44EA815400
:1041000047EA8357A4FB076802958D0A05FB0785DC
:104110004FEA932C04FB0C542705029D4FEA0658E6
:1041200047EA1637B5EB08056EEB070C870E920EC3
:1041300047EA811742EA8312A7FB0201B6EB0B01A3
:1041400064EB00042B0D43EA0C335E1844EB1C5067
:10415000DA465146E7FB0201C5F313044FEA0B337D
:1041600043EA14534FEA0432019C43EA0603A4F1E4
:104170000C040294009CCDE900B400F076F903B081
:10418000BDE8F08F00200146F9E72DE9F04D81EA06
:10419000030404F0004B21F0004514464FF0000AE0
:1041A00023F0004150EA050220D054EA01021DD05C
:1041B000C5F30A570246C5F31303C1F31300C1F355
:1041C0000A5640F4801543F48013A7EB0608101B31
:1041D000D64608F2FD3873EB050002D308F101085A
:1041E00001E092185B41B8F1000F03DA00200146AC
:1041F000BDE8F08D00204FF48011064684460EE0A5
:10420000171B73EB050705D3121B63EB050306436E
:104210004CEA010C49084FEA300092185B4150EA21
:104220000107EDD152EA030012D082EA040083EACA
:104230000501084305D0101BAB4106D20122002323
:1042400006E000224FF0004302E06FF0010253103D
:104250001AEB06004CEB085110EB0A0041EB0B0186
:10426000BDE8F04D00F0F2B8C10F80EAE0700844FC
:10427000CA079623002100F0BBB80EB5C10F80EA33
:10428000E0700844CA07002140F233438DE80E0075
:104290000A460B4600F0E9F803B000BD0EB540F247
:1042A000334102910021CDE900110A460B4600F08E
:1042B000DCF803B000BD70B5C1F30A5201F000454F
:1042C0000024C1F3130140F2FF3341F480119A42FC
:1042D00001DA002070BD40F233439A42A2F2334229
:1042E00003DC524200F059F800E090402C43F1D03A
:1042F000404270BD00F0004230F000400AD0C10DD5
:1043000001F56071C0F3160042EA0151C20840078E
:104310001143704700200146704701F0004330B45C
:1043200021F0004150EA010206D00A0DA2F56072A8
:10433000C1F31301002A02DC30BC00207047440F97
:1043400044EAC104C100E01830BC00EBC25000F0E8
:1043500046B80000002801DBC0F10040002901DB65
:10436000C1F1004181427047002801DBC0F10040EB
:10437000002901DBC1F1004188427047202A04DB9B
:10438000203A00FA02F1002070479140C2F1200368
:1043900020FA03F3194390407047202A04DB203AA7
:1043A00021FA02F00021704721FA02F3D040C2F155
:1043B00020029140084319467047202A06DBCB179C
:1043C000203A41FA02F043EAE07306E041FA02F3D0
:1043D000D040C2F12002914008431946704700299D
:1043E000A8BF7047401C490008BF20F0010070477B
:1043F00010B4B0FA80FC00FA0CF050EA010404BFDB
:1044000010BC704749B1CCF1200421FA04F411FA30
:104410000CF118BF012121430843A3EB0C01CB1D74
:104420004FEA00614FEA102042BF002010BC7047E5
:1044300000EBC35010440029A4BF10BC7047401CBF
:10444000490008BF20F0010010BC704710B5141ED1
:1044500073F1000408DA401C41F1000192185B413D
:104460001A4301D120F0010010BD2DE9F04D924614
:104470009B4611B1B1FA81F202E0B0FA80F220322B
:104480009046FFF77BFF04460F4640EA0A0041EAE8
:104490000B0153465A46084313D0114653EA010014
:1044A00019D0C8F140025046FFF777FF05460E4687
:1044B000504659464246FFF761FF084305D00120A8
:1044C00004E020463946BDE8F08D0020054346EA69
:1044D000E0762C4337430A986305E40AA0EB080012
:1044E0000022FD0A44EA47540A3002D50020014662
:1044F000E9E7010510196941DDE90845001969413D
:10450000BDE8F04DA2E70000064C074D06E0E0686C
:1045100040F0010394E8070098471034AC42F6D30A
:10452000FBF70AFEC8680008E868000870B521F0CB
:10453000004303430CD0C1F30A550024D5EB040516
:1045400064EB0403D617AD1AB34102DB0020014629
:1045500070BD201841EB025170BD490050EAC120E6
:1045600018BF04204A0D18BF40F0010040F2FF724E
:10457000B2EB515F08BF40F00200012808BF0520E0
:10458000704700002DE9F74F144694B00021C4E9AC
:1045900002111599079121F00045C9498D4206DCA9
:1045A0001599C4E9000117B00020BDE8F08FC54996
:1045B000DFF814A3A9423CDD0799C44E0029C44F7B
:1045C000C44A1599534619DDFFF767FD554506D0D6
:1045D000C14AC24BFFF761FDC4E900010AE04FF098
:1045E000D352BE4BFFF759FD32463B46FFF755FD10
:1045F000C4E9000117B00120BDE8F08FFFF7ACFC63
:10460000554506D0B44AB54BFFF7A6FCC4E90001F6
:104610000AE04FF0D352B14BFFF79EFC32463B46C7
:10462000FFF79AFCC4E9000117B04FF0FF30BDE876
:10463000F08FAB49A942159978DB21F00041834600
:104640008846A84AA84BFFF72EFD0022A74BFFF78C
:1046500083FCFFF730FE0990FFF70FFE06460F467A
:104660009C4A5346FFF71FFD43465A46FFF718FD85
:1046700080468A46984A994B30463946FFF713FDE3
:104680002A0D01250B9242465346FFF709FD032DE3
:10469000C4E9000139D00B98C1F30A51401A05EB67
:1046A00045111139814230DA9148C346784400EB14
:1046B0000510CDF80CA00C90D0E900233046394607
:1046C000FFF7F1FC02460B46049106905846039909
:1046D000FFF7E3FC80468A4602460B46584603999C
:1046E000FFF7DBFC049B069AFFF7D7FC83460C9888
:1046F00003913946D0E902233046FFF7D4FC5A46ED
:10470000039BFFF7CAFC6D1CBDE707980028A2BFFA
:10471000099817B0BDE8F08F616881F000416160D1
:10472000099817B04042BDE8F08FFFE7844615981E
:10473000C1F31301C0F30A50A0F2F5304FEA60183C
:1047400000F01F06C6F1200013900020069007908D
:1047500041F4801E05206D4676B1664A08EB0001E3
:104760007A4452F8213002EB8101B3404A68139930
:1047700022FA01F1194305E05F4908EB0002794490
:1047800051F82210A1FB0E27A1FB0C131A449A42E8
:1047900034BF0123002303EB070A05EB8003D3E9B1
:1047A00001B70F448F4234BF0121002193448B4451
:1047B00011B1934502D903E0934501D2012100E0F4
:1047C0000021C3E901B7514445F82010011EA0F1B2
:1047D0000100C1DC0298059F00F10050800F12908B
:1047E0000298DDE903568000FFF747FD834628461F
:1047F0000D91FFF753FD6FF01D02FFF797FECDE916
:104800000E013046FFF74AFD6FF03D02FFF78EFEC6
:1048100080468A463846FFF741FD6FF05D02FFF79C
:1048200085FE0746424653461191FFF795FBDDE9A9
:104830000E23FFF791FB5A460D9BFFF78DFB0025DA
:104840000E465A4628460D9BFFF727FCDDE90E234E
:10485000FFF723FC42465346FFF71FFC3A46119BE5
:10486000FFF71EFCDFF898A0244A5346FFF71BFC15
:1048700007468846234A244B31462846FFF713FC57
:104880003A464346FFF768FB074688464FF0A84282
:10489000534631462846FFF706FC3A464346FFF7A3
:1048A0005BFB159A12F0004F04D0129A81F0004180
:1048B00052421292C4E90001129817B0BDE8F08F7D
:1048C000FB21E93F7CD90240FB21F93F7370032EA5
:1048D0008A19A33B000040543163621A61B4D03D91
:1048E000FB21394183C8C96D305FE43F0000E03FE0
:1048F00028210000A420000086200000182D445428
:10490000FB21F93D3326A611460B113C2DE9FF4D45
:1049100021F0004807460C46B8F1795F08DAFFF746
:10492000CAFC002801BF0020324904B0BDE8F08D68
:104930003A46234610461946FFF7B5FB05460246A0
:104940002D480E460B460621784400F05DF82A46B5
:104950003346FFF7A8FBDDE9022382468B46384643
:104960002146FFF7A0FB04460F4652465B46284609
:104970003146FFF798FB22463B46FFF78EFB074682
:104980008A464FF0FF3228463146FFF7CFFD1B4ADB
:1049900090450ADA3A465346FFF77FFB04B00022FF
:1049A000BDE8F04D134BFFF77BBB154A4245A8BF4E
:1049B000A8F500154FF00004B8BF124D22462B4653
:1049C000FFF76BFB0646884622462B460020094926
:1049D000FFF763FB04460D463A46534630464146D0
:1049E000FFF75BFB04B022462B46BDE8F04DFFF716
:1049F00057BB00000000F03F541E00003333D33F8C
:104A00000000E93F0000D23F2DE9F0414F1E00EBCE
:104A1000C7010446D1E9000115461E4637F00602DB
:104A20000DD02A463346FFF73EFB7F1E04EBC7033B
:104A3000D3E90023FFF790FA37F00602F1D1022FF5
:104A400025D0042F13D0062F18BFBDE8F0812A46C9
:104A50003346FFF728FBD4E90A23FFF77DFA2A46FD
:104A60003346FFF720FBD4E90823FFF775FA2A46FF
:104A70003346FFF718FBD4E90623FFF76DFA2A4601
:104A80003346FFF710FBD4E90423FFF765FA2A4603
:104A90003346FFF708FBD4E90223FFF75DFA2A4605
:104AA0003346FFF700FBD4E90023BDE8F041FFF7F0
:104AB00053BA00002DE9FF4D054621F0004084B0B7
:104AC0000C46B0F1795F0BDA2846FFF746FD042863
:104AD00008BF00F071F8284608B02146BDE8F08D07
:104AE0002A460B461046FFF7DEFA06460F462A46D0
:104AF0002346FFF7D8FA804626488A4632463B4688
:104B000005217844FFF780FF83461098029160B337
:104B1000214A224B40465146FFF7C5FACDE9000134
:104B20005A4640465146029BFFF7BDFA82468846E8
:104B3000DDE906014FF0FF32FFF7F8FC524643462D
:104B4000FFF7ABFA32463B46FFF7ADFADDE9062345
:104B5000FFF7A3FADDE90023FFF79FFA08B02A4622
:104B60002346BDE8F04DFFF79BBA0B465A46304648
:104B70003946FFF798FA084A084BFFF7EDF9424625
:104B80005346FFF790FA08B02A462346BDE8F04D99
:104B9000FFF7E2B99A1D0000495555555555C5BF57
:104BA0000122FFF7C3BCFFF7D7B900221346104616
:104BB0001146FFF7EABA0000024A00201107FFF78A
:104BC000B5BC000001FDFFFF02E008C8121F08C1CC
:104BD000002AFAD170477047002001E001C1121F7E
:104BE000002AFBD1704700000149086070470000AF
:104BF0005C0000202DE9F84F04460D4621F00040EE
:104C000000917349814211DC7249884201DC06D16E
:104C10002CB120462946BDE8F84FFFF7C1BF6E48CA
:104C2000002DCCBF6D496E49BDE8F88F6D498142BA
:104C300011DD6D498142D8BF4FF0FF366DDD204652
:104C40002946FFF78AFC042808BFFFF7B5FF204676
:104C50002946BDE8F88F6549654F25F0004581423A
:104C600033DD6449814219DD002632464FF080432E
:104C700020462946FFF770F980468A4601222046E1
:104C80002946FFF753FC00223B46FFF706FA42464F
:104C90005346FFF77AFA04460D463EE0012600220D
:104CA000BA463B4620462946FFF756F980460F464E
:104CB0000022534620462946FFF7EFF942463B467D
:104CC000FFF763FA04460D4627E04B4981421BDD9E
:104CD000DFF828A102260022534620462946FFF786
:104CE000E2F900223B46FFF737F980460F460022E3
:104CF000534620462946FFF7D0F942463B46FFF788
:104D000044FA04460D4608E0032622462B460020BE
:104D10003B49FFF73AFA04460D4622462B46104619
:104D20001946FFF7C0F98B46824602460B46FFF74D
:104D3000BAF907460246334888460B4606217844AE
:104D4000FFF762FE52465B46FFF7ADF982462E48FA
:104D50008B463A46434605217844FFF755FE3A46CE
:104D60004346FFF7A0F902460B46002E504659462F
:104D70000CDAFFF7F1F822462B46FFF794F901B061
:104D800022462B46BDE8F04FFFF78AB9FFF7E4F85B
:104D900022462B46FFF787F91C4A7A4402EBC603EA
:104DA000D3E90023FFF779F922462B46FFF775F97F
:104DB000174A7A4402EBC603D3E90023FFF770F9E0
:104DC000009A002AB8BF81F00041BDE8F88F0000CA
:104DD000000010440000F07F182D4454FB21F93FDF
:104DE000FB21F9BF0000DC3F0000203E0000F33F44
:104DF0000000F03F0000E63F008003400000F83F65
:104E00000000F0BF2E1A0000EC1900008A19000003
:104E1000521900002DE9F04D9446CCF1000423F026
:104E200000464CEA0404524F46EAD4749A46884637
:104E300021F00042BC4206D8454240EA050442EA5D
:104E4000D474BC4204D9BDE8F04D6246FFF7ABBE56
:104E5000AAF14055A5F17F6555EA0C040BD0022458
:104E600004EAAA74434DDFF810E144EAD87452EA28
:104E7000000B04D00CE0BDE8F04DFFF7BBBE002CEA
:104E800014BF012CBDE8F08D022C30D0032C32D0A1
:104E900056EA0C0B0AD0BE4220D1BA4209D126F004
:104EA000804622F080423346114617E000291ADB83
:104EB00025E0DFF8C8B0FB44002C04BFDBE90001AB
:104EC000BDE8F08D012C02BFDBE9000181F000415B
:104ED000BDE8F08D022C0AD0032C0CD0BA4212D1BE
:104EE000B8F1000F0BDA23482549BDE8F08D2846BC
:104EF0002449BDE8F08D28467146BDE8F08D1D4877
:104F00002149BDE8F08D921B12153C2AC4BF1948F7
:104F10001D490EDCBAF1000FBEBF12F13C0F00209C
:104F2000014606DB6246FFF730F921F00041FFF74A
:104F300061FE002C08BFBDE8F08D012C04BF81F09C
:104F40000041BDE8F08D114A114B022C07D0FFF74C
:104F5000A4F82A46BDE8F04D0A4BFFF79EB8FFF7CC
:104F60009CF82A46BDE8F04D064BFFF799B80000C3
:104F70000000F07F182D4454FB2109C016190000D1
:104F8000FB21F9BFFB210940FB21F93F075C1433EA
:104F900026A6A13C00B5244B21F0004287B09A42DE
:104FA000DCBF0022134629DD204B9A4208D140B9CC
:104FB0004FF00100FFF718FEFFF7F7FD07B000BD47
:104FC00003DBFFF7EDFD07B000BD02AAFFF7DAFA39
:104FD00010F0030104BF0DF1080C9CE80F000DD088
:104FE000012001290ED0022914D00DF1080C0090E7
:104FF0009CE80F00FFF75EFD07B000BDFFF786FCE1
:1050000007B000BD0DF1080C00909CE80F00FFF701
:1050100051FD05E00DF1080C9CE80F00FFF776FC50
:1050200007B081F0004100BDFB21E93F0000F07FA7
:1050300000B5254B21F0004287B09A4203DC0022E4
:10504000134600922BE0214B9A4208D140B94FF011
:105050000100FFF7C9FDFFF7A8FD07B000BD03DBA6
:10506000FFF79EFD07B000BD02AAFFF78BFA10F014
:1050700003014FF001000DD0012914D002291AD0EC
:105080000DF1080C9CE80F00FFF740FC07B081F021
:10509000004100BD0DF1080C00909CE80F00FFF7E7
:1050A00009FD07B000BD0DF1080C9CE80F00FFF7EB
:1050B0002DFC07B000BD0DF1080C00909CE80F001E
:1050C000FFF7F8FCE2E70000FB21E93F0000F07F7A
:1050D00000000000003E5B4F5B3E3E6B4F6B3E1C92
:1050E0003E7C3E1C183C7E3C181C577D571C1C5EA9
:1050F0007F5E1C00183C1800FFE7C3E7FF00182480
:105100001800FFE7DBE7FF30483A060E2629792929
:1051100026407F050507407F05253F5A3CE73C5A5E
:105120007F3E1C1C08081C1C3E7F14227F22145F3B
:105130005F005F5F06097F017F006689956A606096
:1051400060606094A2FFA29408047E040810207E90
:10515000201008082A1C08081C2A08081E10101015
:10516000100C1E0C1E0C30383E3830060E3E0E065B
:10517000000000000000005F0000000700070014AE
:105180007F147F14242A7F2A12231308646236496D
:105190005620500008070300001C22410000412255
:1051A0001C002A1C7F1C2A08083E0808008070305A
:1051B00000080808080800006060002010080402C9
:1051C0003E5149453E00427F4000724949494621CF
:1051D00041494D331814127F1027454545393C4A43
:1051E000494931412111090736494949364649495A
:1051F000291E0000140000004034000000081422A2
:10520000411414141414004122140802015909060F
:105210003E415D594E7C1211127C7F494949363E10
:10522000414141227F4141413E7F494949417F09F6
:105230000909013E414151737F0808087F00417F01
:1052400041002040413F017F081422417F404040FF
:10525000407F021C027F7F0408107F3E4141413E97
:105260007F090909063E4151215E7F091929462619
:105270004949493203017F01033F4040403F1F201D
:1052800040201F3F4038403F6314081463030478F4
:1052900004036159494D43007F4141410204081014
:1052A00020004141417F040201020440404040404F
:1052B000000307080020545478407F2844443838BD
:1052C00044444428384444287F385454541800082F
:1052D0007E090218A4A49C787F0804047800447D09
:1052E00040002040403D007F1028440000417F40A6
:1052F000007C047804787C080404783844444438FA
:10530000FC1824241818242418FC7C0804040848D9
:105310005454542404043F44243C4040207C1C202A
:1053200040201C3C4030403C44281028444C909085
:10533000907C4464544C44000836410000007700DF
:1053400000004136080002010204023C2623263CEC
:105350001EA1A161123A4040207A38545455592177
:105360005555794121545478412155547840205461
:105370005579400C1E5272123955555559395454AD
:10538000545939555454580000457C410002457D1C
:10539000420001457C40F0292429F0F0282528F01E
:1053A0007C545545002054547C547C0A097F493272
:1053B000494949323248484832324A4848303A41ED
:1053C00041217A3A42402078009DA0A07D39444492
:1053D00044393D4040403D3C24FF2424487E49431D
:1053E000662B2FFC2F2BFF0929F620C0887E09038E
:1053F00020545479410000447D413048484A3238B5
:105400004040227A007A0A0A727D0D19317D2629E0
:10541000292F28262929292630484D4020380808D8
:10542000080808080808382F10C8ACBA2F1028340C
:10543000FA00007B000008142A142222142A1408FF
:105440009500220095AA005500AAAA55AA55AA00BF
:105450000000FF00101010FF00141414FF001010C3
:10546000FF00FF1010F010F0141414FC001414F7D7
:1054700000FF0000FF00FF1414F404FC14141710C4
:105480001F10101F101F1414141F00101010F00014
:105490000000001F101010101F10101010F010004E
:1054A0000000FF101010101010101010FF1000005E
:1054B00000FF140000FF00FF00001F10170000FC99
:1054C00004F414141710171414F404F40000FF006B
:1054D000F714141414141414F700F71414141714F4
:1054E00010101F101F141414F4141010F010F000FA
:1054F000001F101F0000001F14000000FC1400001B
:10550000F010F01010FF10FF141414FF14101010FE
:105510001F00000000F010FFFFFFFFFFF0F0F0F0B1
:10552000F0FFFFFF0000000000FFFF0F0F0F0F0F45
:1055300038444438447C2A2A3E147E02020606027D
:105540007E027E0263554941633844443C04407EF8
:10555000201E2006027E020299A5E7A5991C2A4971
:105560002A1C4C7201724C304A4D4D3030487848FC
:1055700030BC625A463D3E494949007E0101017EE8
:105580002A2A2A2A2A44445F444440514A4440403B
:10559000444A51400000FF0103E080FF000008087A
:1055A0006B6B083612362436060F090F06000018FA
:1055B000180000001010003040FF0101001F010121
:1055C0001E00191D1712003C3C3C3C00000000006E
:1055D0000000000000000000002F00000000070095
:1055E000070000147F147F1400242A7F2A1200620F
:1055F00064081323003649552250000005030000BB
:1056000000001C224100000041221C000014083E42
:1056100008140008083E0808000000A06000000808
:10562000080808080000606000000020100804025C
:10563000003E5149453E0000427F4000004261511A
:105640004946002141454B31001814127F100027B4
:1056500045454539003C4A49493000017109050377
:1056600000364949493600064949291E00003636A8
:10567000000000005636000000081422410000140B
:1056800014141414000041221408000201510906E8
:1056900000324959513E007C1211127C007F494969
:1056A0004936003E41414122007F4141221C007F9A
:1056B00049494941007F09090901003E4149497AA8
:1056C000007F0808087F0000417F41000020404122
:1056D0003F01007F08142241007F40404040007F8E
:1056E000020C027F007F0408107F003E4141413ED2
:1056F000007F09090906003E4151215E007F09191A
:1057000029460046494949310001017F0101003F16
:105710004040403F001F2040201F003F4038403F96
:1057200000631408146300070870080700615149FA
:10573000454300007F41410000552A552A5500008D
:1057400041417F000004020102040040404040400B
:10575000000001020400002054545478007F4844A3
:10576000443800384444442000384444487F0038DA
:105770005454541800087E0901020018A4A4A47C03
:10578000007F080404780000447D400000408084CD
:105790007D00007F102844000000417F4000007C15
:1057A00004180478007C0804047800384444443821
:1057B00000FC242424180018242418FC007C08046D
:1057C000040800485454542000043F444020003C46
:1057D0004040207C001C2040201C003C4030403CCD
:1057E000004428102844001CA0A0A07C004464545D
:1057F0004C441414141414140000000000000000A1
:105800000000000000000000000000F800000000A0
:10581000000000333000000000100C06100C0600E1
:10582000000000000000000040C07840C078400048
:10583000043F04043F040400007088FC08300000AA
:10584000001820FF211E0000F008F000E018000002
:1058500000211C031E211E0000F0088870000000BB
:105860001E2123241927211010160E00000000000D
:105870000000000000000000000000E0180402002A
:10588000000000071820400000020418E00000009B
:105890000040201807000000404080F08040400099
:1058A0000202010F01020200000000F000000000EF
:1058B0000101011F010101000000000000000000C3
:1058C00080B0700000000000000000000000000038
:1058D00000010101010101010000000000000000C1
:1058E000003030000000000000000000806018045C
:1058F000006018060100000000E010080810E00039
:10590000000F102020100F00001010F80000000001
:105910000020203F20200000007008080888700048
:1059200000302824222130000030088888483000C8
:105930000018202020110E000000C02010F80000E8
:1059400000070424243F240000F808888808080081
:105950000019212020110E0000E010888818000096
:10596000000F112020110E0000380808C838080068
:105970000000003F000000000070880808887000E8
:10598000001C222121221C0000E010080810E00069
:105990000000312222110F00000000C0C0000000F2
:1059A0000000003030000000000000800000000017
:1059B000000080600000000000008040201008000F
:1059C00000010204081020004040404040404000D8
:1059D00004040404040404000008102040800000B3
:1059E0000020100804020100007048080808F000B8
:1059F0000000003036010000C030C828E810E00088
:105A00000718272423140B000000C038E000000012
:105A1000203C23020227382008F88888887000007C
:105A2000203F202020110E00C03008080808380050
:105A3000071820202010080008F808080810E000C7
:105A4000203F202020100F0008F88888E808100068
:105A5000203F20202320180008F88888E80810003C
:105A6000203F200003000000C03008080838000074
:105A700007182020221E020008F808000008F80875
:105A8000203F210101213F20000808F808080000FC
:105A90000020203F2020000000000808F80808002F
:105AA000C08080807F00000008F888C028180800A7
:105AB000203F20012638200008F8080000000000E0
:105AC000203F20202020300008F8F800F8F80800D7
:105AD000203F003F003F200008F830C00008F808D1
